:100000000C9469030C9425330C9486030C9486039A
:100010000C9486030C9486030C9486030C9486033C
:100020000C9486030C9486030C9462310C943A323F
:100030000C9417310C9486030C9486030C9486035D
:100040000C9486030C9486030C9486030C9486030C
:100050000C9486030C943E310C9486030C94860316
:100060000C9486030C9486030C9486030C948603EC
:100070000C9486030C9486030C9486030C948603DC
:100080000C9486030C9486030C9486030C948603CC
:100090000C9486030C9486030C9486030C948603BC
:1000A0000C9486030C9486030C94860305010902C4
:1000B000A10185020901A1000509190129081500FE
:1000C0002501950875018102050109300931158165
:1000D000257F95027508810609381581257F9501D0
:1000E00075088106050C0A38021581257F95017572
:1000F000088106C0C005010980A101850319012AF4
:10010000B700150126B700950175108100C0050CD8
:100110000901A101850419012AA002150126A002E6
:10012000950175108100C00660FF0961A101096297
:10013000150026FF00952075088102096315002629
:10014000FF00952075089102C005010906A101056F
:100150000719E029E7150025019508750181029529
:1001600001750881010507190029FF150026FF0008
:100170009506750881000508190129051500250156
:10018000950575019102950175039101C00000006C
:10019000000000000000000000000000000000005F
:1001A000000000000000000000000000000000004F
:1001B000007E0F00D4FFFFFFC700000078000000A2
:1001C00000000000002A2B280000000000000000B2
:1001D000000000000000000029000000002C1E3478
:1001E00020212224342627252E362D3738271E1F7E
:1001F000202122232425263333362E37381F0405A9
:10020000060708090A0B0C0D0E0F10111213141516
:10021000161718191A1B1C1D2F3130232D350405F4
:10022000060708090A0B0C0D0E0F101112131415F6
:10023000161718191A1B1C1D2F3130354C09025B7B
:1002400000030100A0FA09040000010301010009F4
:100250002111010001224400070581030800010962
:100260000401000203000000092111010001222203
:100270000007058203200001070503032000010990
:100280000402000103000000092111010001227B8A
:10029000000705840320000112010002000000088D
:1002A000EDFE66660001010203011C037600690091
:1002B00061006C003A0066003600340063003200D2
:1002C00062003300630000000E03770069006E00D7
:1002D00067005F006200000004034A00000004039E
:1002E000090429001E001F002000210022002B000D
:1002F00014001A0008001500170039000400160049
:10030000070009000A00E1001D001B00060019009B
:100310000500E000E300E20021522C002C00000068
:1003200000000000000049004C00230024002500CC
:10033000260027002A001C0018000C0012001300E1
:1003400031000B000D000E000F00330028000500E7
:100350001100100036003700E5002C00E6005000C8
:10036000510052004F0022527700000000000000B0
:10037000000035003A003B003C003D003E0001001B
:1003800001005200010044004500010050005100EE
:100390004F000100010001004A004B004E004600E2
:1003A0000100010001000100010001000100000046
:1003B000000000000000010001003F00400041007B
:1003C0006E0043002E002400250026002F00300080
:1003D00001002100220023002D002E0034001E0009
:1003E0001F0020000100380001000100270001006B
:1003F0000100010001000100007C0000000000007D
:10040000000035003A003B003C003D003E0001008A
:10041000010052000100440045000100500051005D
:100420004F000100010001004A004B004E00460051
:1004300001000100010001000100010001000000B5
:10044000000000000000010001003F0040004100EA
:100450006E0043002E002400250026002F003000EF
:1004600001002100220023002D002E0034001E0078
:100470001F002000010038000100010027000100DA
:100480000100010001000100007C000000000000EC
:100490000000010001008B04C813DE1300000200FD
:1004A00002008704C813DE130000030001008C045F
:1004B000C813DE130000040002007104C813DE1329
:1004C0000A07050001008D04C813DE1300000600B2
:1004D00002007304C813DE13000007000200890441
:1004E000C813DE130000080001008E04C813DE13D9
:1004F0000000090002007504C813DE1313070A0088
:1005000002007704C813DE1313070B0002007904FE
:10051000C813DE1313070C0002007B04C813DE139C
:1005200013070D0002007D04C813DE1313070E002D
:1005300002007F04C813DE1313070F0002008104BA
:10054000C813DE131307100002008304C813DE1360
:100550001307110002008504C813DE1313071200ED
:1005600002008F04C813DE13000013000200910480
:10057000C813DE130000140001009304C813DE1337
:1005800000001500000000003807C10F0000FD3713
:100590007A585A000004E6D6B4460200210116003B
:1005A0000000742FE5A3E002C801045D003D8889C6
:1005B000C65436C3174FE4FC54586FA25825A5E41F
:1005C000665D898765AEB816A8D1FC2E628225BE0D
:1005D00011293C4939BE2181AC0FDD6D667BC35EBC
:1005E000D1A89F2000EFD2C80F98270998DCC5FD3D
:1005F000BF26638937C485420077D414BF0F146BBC
:1006000051BAC35B0606B67B5E2EFFB33191CD0AAD
:10061000CB612CB335C4F6064B14F3BFDBE7005DAA
:100620000FD3AAF653A14F043C7CCC2F7FD6509316
:1006300085D93E8F687FEF95C4680161DE67DE2F44
:100640009FFE8FB8A9F5612008BC47EEC89A10F844
:10065000132558148AC480393E8BD640A4BD9ABF56
:1006600036CB08D64BE7C5570892DE2F7F68542556
:100670004071FBA5468840A8AA229AA8F2EFD5CCE3
:100680003DAF69CEBEDBBF5405748F6C2FB36D4296
:10069000F40AFD8FBAB192AAD80C281B16B430F315
:1006A0009416EF96081EC5542B17BA65FF21DD6915
:1006B000820003B76F1E1DFA80700001A002C905F9
:1006C000000034F507ADB1C467FB02000000000470
:1006D000595A11241FBECFEFDAE0DEBFCDBF11E0C3
:1006E000A0E0B1E0ECEAFBE602C005900D92A23971
:1006F000B107D9F724E0A2E9B1E001C01D92A93900
:10070000B207E1F70E94902A0C943C350C9400004B
:100710009C01FB019A9581159F4120F5D901AA27DB
:10072000B270832F8170B90166277470A9014427C4
:10073000587034FF0DC08295807FAB2B09F080622A
:10074000672B09F08064452B09F0806809950895AE
:10075000AB2B09F08260672B09F08460452BB1F365
:100760008860F4CF80E0F2CF282F92959F7096306A
:1007700091F060F4925F9F70923030F481E0203FFE
:1007800079F030F4283E30F080E008959A5FF3CF9E
:10079000243FD1F7089581E0283EE0F3213FF9CFCF
:1007A000089580936F04089580937004089521E064
:1007B00030E001C0220F8A95EAF780917004822B05
:1007C0000E94D403089521E030E0A90102C0440F43
:1007D000551F8A95E2F7CA0180959091700489238C
:1007E0000E94D4030895292F9C3098F5863088F50F
:1007F00090E036E0239F800D911D1124282F277053
:1008000041E001C0440F2A95EAF723E096958795C9
:100810002A95E1F7FC01EE0FFF1FE80FF91FEE50DC
:10082000FD4F20E030E070E05191DF011197CB01E6
:10083000022E02C0969587950A94E2F78170819501
:100840008527842385278C932F5F3F4F23303105E5
:1008500059F70895292F9C3078F5863068F590E097
:1008600036E0239F800D911D1124682F677023E0CF
:10087000969587952A95E1F7FC01EE0FFF1FE80F8B
:10088000F91FEE50FD4F40E050E080E0219130E054
:10089000062E02C0369527950A94E2F72170332779
:1008A000042E01C0220F0A94EAF7822B4F5F5F4F9C
:1008B0004330510559F7089580E0089590917004F0
:1008C00021E030E0F90101C0EE0F8A95EAF7D90185
:1008D00002C0AA0FBB1F6A95E2F7EA2B01C0220FE4
:1008E0004A95EAF7892F8E23E81305C0892F822BBA
:1008F0000E94D40308952095822F8923F9CF8091F7
:10090000A00290919F02981301C008958F5F877095
:10091000FACF9091BD03809589238093BD03282F42
:100920002770211111C0891779F09091960492FFD8
:100930000BC08695869586950E94E3031092BD03B1
:100940001092BF031092BE0308959091BA03982BA2
:100950009093BA030895982F90958091BA038923B4
:100960008093BA0308958091B903882331F01092DF
:10097000B9031092B8031092B7030895803E910511
:10098000D1F1C8F48133910509F47FC048F489326C
:10099000910509F46FC08A32910509F47DC008956C
:1009A00089339105E1F082389105C9F085339105CD
:1009B00009F45BC00895843E9105D1F148F4823E6C
:1009C000910531F1833E910541F181EE90E008956A
:1009D000863E9105C1F1873E9105E1F10895209190
:1009E00095042370211165C02091960423FF14C043
:1009F00089E290E008952091950420FD43C0309154
:100A0000960430FF09C024FF4EC080E090E00895B6
:100A10002091950422FDF7CF08952091950422FDA1
:100A200045C03091960430FD44C024FFF5CFEDCF92
:100A30002091960421FFF0CF8091950484FDE5CFAD
:100A400087EE90E008952091950423FFE5CF24FDE3
:100A5000DCCFF6CF2091950423FD2EC03091960473
:100A600031FFE3CF84EE90E008952091950425FFB7
:100A7000D3CFBECF2091950425FD21C020919604AF
:100A800023FFCACF89E390E008952091950426FFC3
:100A9000C3CF8AE290E008952091950426FFBCCF51
:100AA00081E390E0089583EE90E0089582EE90E077
:100AB000089580EE90E0089586EE90E0089585E335
:100AC00090E0AACF9091950492FF10C041E0282FAA
:100AD0002471243009F040E031E0282F28712830BB
:100AE00009F030E0431711F02CE0822793FF10C08B
:100AF00041E0282F2471243109F040E031E0282F13
:100B00002871283109F030E0431711F02CE08227DA
:100B10003091960430FF10C051E0282F2171213010
:100B200009F050E041E0282F2871283009F040E01A
:100B3000541711F029E0822731FF10C041E0282F1F
:100B40002171213109F040E031E0282F287128314E
:100B500009F030E0431711F029E0822794FD877EE9
:100B600008951F93CF93DF930E94BE04EC0181157B
:100B700022E5920708F053C0811540E5940708F07C
:100B8000DDC0803E9105F8F48D3C910508F0AEC0C3
:100B9000883A910580F4853A910508F099C0813032
:100BA000910521F00497813A910550F4CE01DF912F
:100BB000CF911F910895885A91094B9708F48BC0E3
:100BC000C0E0D0E0F3CF811550E49507F8F4C115EB
:100BD00080E2D80708F0CBC0C83ED10538F3CE017B
:100BE0009A9581159F4160F78D2F0E946205182FFD
:100BF000CE0199270E94BE04212F30E0322F2227F8
:100C0000E901CC27DF71C82BD92BD0CF99270E94BF
:100C1000BE04CC27DF70C82BD92BD06AC7CF803851
:100C200042E59407C8F5803652E5950708F067C09D
:100C3000C03482E5D807B0F08C2F869586958770F2
:100C400020E2829FC0011124C37021E030E0A9019D
:100C500002C0440F551FCA95E2F7EA01C82BD92BF1
:100C6000DC68A4CFC03252E5D50708F041C08C2F14
:100C70008695869520E2829FC0011124C37021E0F1
:100C800030E0A90102C0440F551FCA95E2F7EA01FE
:100C9000C82BD92BDD688ACF803C52E5950760F4DC
:100CA0008F71C03AD24508F03FC090E0982F882756
:100CB000EC01C46FD06A7ACF805C9245809708F0CF
:100CC0007FCFDC2FCC27CC27DF71C06FD06A6ECFEF
:100CD000A497D0646BCFC85AD0E0CC0FDD1FC45AA4
:100CE000DE4F0990D881C02DD46460CFD0655ECF2F
:100CF000CF71D0E0DC2FCC27C16FD06A57CF86955B
:100D00008695877020E2829FC0011124C37021E084
:100D100030E0A90102C0440F551FCA95E2F7EA016D
:100D2000C82BD92BDA6842CF0E946205C82FD0E0C9
:100D3000DC2FCC27CC27DF71D06238CF8F710E9497
:100D4000620565E0D695C7956A95E1F7CF70D0E06A
:100D5000DC2FCC27282F30E084FF05C054E0220F81
:100D6000331F5A95E1F7C22BD32BD0691FCF8D2F9C
:100D70008F710E946205182FCE0199270E94BE0430
:100D8000212F30E0322F222722273F71282B392BA9
:100D9000E901D2CF80E00895F894E82FE295EF7052
:100DA000F0E041A18F7021E030E0B90102C0660F90
:100DB000771F8A95E2F7CB01962F9095942391A304
:100DC00092A1892B82A37894089581152CE792072C
:100DD00041F42091100130911101232B11F480E096
:100DE00090E00895E8E2F3E080E090E060EA79E2E4
:100DF00047EC59E22CE33AE27783668351874087D8
:100E00003387228797878687019670968830910569
:100E100099F70895809171049091720490930D0157
:100E200080930C010895E1E7F4E0848195812AE044
:100E300030E0B9010E94773460932F01868180935E
:100E40002E01828580932D01848580932C018685D7
:100E50009785B9010E94773460930E018089809351
:100E60000F01828980932B01848980932A01089540
:100E7000A0E0B0E0EEE3F7E00C944634FB018FEF26
:100E80009FEF4430510508F465C04091950441FB43
:100E9000882780F990E0880F991F42FBAA24A0F8C8
:100EA000B12CAA0CBB1CAA0CBB1C8A299B2940FB99
:100EB000882480F8912C8829992943FBCC24C0F8F8
:100EC000D12C53E0CC0CDD1C5A95E1F78C299D29DF
:100ED00044FBEE24E0F8F12C64E0EE0CFF1C6A9574
:100EE000E1F78E299F2945FB002700F910E075E006
:100EF000000F111F7A95E1F7802B912B46FB2227DB
:100F000020F9C22F20E0D22FA6E0CC0FDD1FAA953A
:100F1000E1F78C2B9D2B47FB442740F920E8429FAB
:100F2000A0011124842B952B20919604322F31702F
:100F3000932B26952170B22FBB0FA0E08A2B9B2B01
:100F4000092E000CAA0BBB0B80839183A283B38371
:100F500080E090E0CDB7DEB7ECE00C946234AC01F9
:100F600023E0969587952A95E1F78E719927FC01E4
:100F7000ED53FE4F0190F081E02D4F70552721E099
:100F800030E002C0220F331F4A95E2F7662341F09A
:100F9000E22BF32B8D539E4FDC01ED93FC930895D0
:100FA00020953095E223F323F5CF1092010410929F
:100FB0000004E0ECF3E08581811102C01482168206
:100FC000379683E0E83FF807B1F70895AC01309118
:100FD000030460910204232F621301C00895822F3D
:100FE00090E0FC01EE0FFF1FE850FC4F0190F081F4
:100FF000E02DE417F50791F467E0649FF001659F29
:10100000F00D1124E054FC4F41E044832313E6CF5C
:101010000196837099278093030408950196282FE1
:101020002370DACF282F35EB2303C001112497FF5B
:1010300004C080589109892F089580589F4FFBCF95
:10104000809113036091790470917A0480FF16C037
:1010500020912D01269FC001279F900D1124BC01D6
:1010600076956795769567956038710508F044C068
:101070006115710509F442C0862F089581FF0BC0E8
:1010800020912D01269FC001279F900D1124BC01A6
:1010900076956795E9CF82FF09C080912D019B016C
:1010A000829FB001839F700D1124DECF80911203C7
:1010B0008823D1F290912C0120912D0130E08917E5
:1010C00048F0CB01829FB001839F700D929F700DFD
:1010D0001124CACF829FA001839F500D1124469FE7
:1010E0009001479F300D569F300D1124692F70E0FD
:1010F000C9010E947734B8CF8FE7089581E0089541
:101100008091130380FF0CC060912B0170E07595F6
:101110006795759567956115710561F1862F08953D
:1011200081FF06C060912B0170E075956795F3CF44
:1011300060912B0170E082FD15C0209111032223E4
:10114000B1F090912A0160912B0170E0291750F4C1
:10115000269FA001279F500D1124692F70E0CA011E
:101160000E948B3460387105B0F28FE7089561E01A
:1011700070E0D4CF81E00895FA01309709F0099525
:10118000089580918902882359F0E0919502F091A9
:101190009602309729F00190F081E02D099508958D
:1011A00080E00895A3E0B0E0E8EDF8E00C9450345E
:1011B0009C018091C0019091C10182179307A1F019
:1011C0003093C1012093C001E0919502F091960205
:1011D000309751F083E089833B832A830084F18533
:1011E000E02DCE01019609952396E2E00C946C3433
:1011F000A3E0B0E0EEEFF8E00C9450349C01809155
:10120000BE019091BF0182179307A1F03093BF01F7
:101210002093BE01E0919502F0919602309751F033
:1012200084E089833B832A830084F185E02DCE010D
:10123000019609952396E2E00C946C349C01FC0124
:1012400032968FEF90E04191461751F08F3F19F49D
:10125000411101C0892F9F5F9630A9F78F3F09F494
:101260000895280F311D87FD3A95F901628308958D
:101270009C01FC013296285F3F4F8191861303C089
:10128000DF0111971C92E217F307B9F708952FB702
:10129000F8948091700290917102A0917202B091C5
:1012A00073022FBF08958091730490917404892B69
:1012B00091F00E9447092091B7033091B803AC0127
:1012C000421B530B9A0181E04091730450917404C6
:1012D0002417350708F480E08170089590919604F2
:1012E00092FF10C098E0899F90011124622B6093B7
:1012F000BD030E94D7030E9447099093BF038093C8
:10130000BE0308950E94D70308959091B903292F31
:101310002823222361F0809589238093B9038823B1
:1013200039F00E9447098093B7039093B80308955A
:1013300080E090E0F8CFCF93C82F8091960482FF91
:101340000CC08091B9038C1741F00E94470990931B
:10135000B8038093B703C093B903CF9108950E9457
:1013600047092091160330911703232B222321F0E4
:1013700080935A0290935B022091180330911903D5
:10138000232B222321F08093580290935902E0915D
:101390009502F0919602309749F082E08093140311
:1013A0000680F781E02D84E193E00995089520916E
:1013B00016039091190330911803662309F45AC05B
:1013C00040911703242B292B232B222331F098E063
:1013D0009093120391E0909311038D3C41F40E948D
:1013E00020088195809317030E94AF090895E2E3D6
:1013F000E80FE231C8F7F0E0E25CFA4C0C949F345D
:101400000E942008EFCF0E94200881958093160348
:10141000EBCF0E942008FACF0E9480088093180327
:10142000E3CF0E9480088195F9CF0E9480088195C2
:1014300080931903D9CF0E948008FACF815D990B60
:1014400021E030E001C0220F8A95EAF78091150370
:10145000822B80931503C8CF809113038160809302
:101460001303C2CF809113038260F9CF80911303DD
:101470008460F5CF8D3C59F48091170387FF0DC030
:1014800010921703222359F41092120308C08E3CC5
:1014900081F48091170318169CF3222381F0809128
:1014A000180390911903892B81119ECF109211037B
:1014B0009BCF8F3C41F427FFF0CF10921603809111
:1014C00017038823E0CF803D19F41216B4F3E5CF5B
:1014D000893D29F413160CF710921803DECF8A3DCC
:1014E00019F437FFDACFF8CF8B3D29F497FFD5CF2A
:1014F00010921903D2CF8C3D19F41916CCF3CDCF2D
:101500009FE2980F983090F4815D990B41E050E094
:10151000BA0102C0660F771F8A95E2F7CB0180956A
:1015200090911503892380931503B7CF8D3D31F436
:10153000809113038E7F80931303AFCF8E3D21F4F0
:10154000809113038D7FF7CF8F3D09F0A6CF809157
:1015500013038B7FF0CFA4E0B0E0E1EBFAE00C9452
:1015600050348FB7F89420917002309171024091FD
:1015700072025091730229833A834B835C838FBF3D
:1015800069817A818B819C812496E2E00C946C3491
:10159000A4E0B0E0EEECFAE00C94503480918902C3
:1015A000882371F00E94AB0A69837A838B839C83C2
:1015B00069817A818B819C812496E2E00C946C3461
:1015C0000E94AB0A69837A838B839C8380918B0210
:1015D00090918C02A0918D02B0918E0229813A8166
:1015E0004B815C81280F391F4A1F5B1F29833A8377
:1015F0004B835C83DDCF9C014FB7F89480917002E0
:1016000090917102A0917202B09173024FBF821B40
:10161000930B089587E797E790930108809300085C
:1016200088E19AE00FB6F894A895809360000FBE09
:1016300090936000FFCF8091BD0108950895FC0153
:101640009B018091B3019091B4018617970740F0F8
:10165000672B29F48091E8008E778093E800C90118
:1016600040E0009741F4411106C08091E80082FFFC
:101670002FC080E0089520916B022223A9F125302C
:10168000A9F12091E80023FD2DC02091E80022FD62
:10169000ECCF2091E80020FFE4CF3091F3002091BF
:1016A000F200009719F02830310558F041E0283059
:1016B000310509F040E02091E8002E772093E80002
:1016C000D0CF41914093F10001972F5F3F4FE9CF79
:1016D00080916B02882341F0853041F08091E800D1
:1016E00083FFC3CF81E0089582E0089583E00895E9
:1016F0008091AD0187FF13C08091E80082FF06C092
:101700008091E8008B778093E80004C080916B02A1
:101710008111F2CF089580916B028823D9F38091D3
:10172000E80080FFF8CF8091E8008E77ECCF209121
:10173000E4003091E50095E6A9018091EC0081700C
:10174000882331F08091E80080FF06C080E0089592
:101750002091E80022FD1BC080916B02882391F04C
:10176000853091F08091EB0085FD10C02091E40060
:101770003091E5004217530701F391509111DCCFEE
:1017800084E0089582E0089583E0089581E008955B
:10179000E8EDF0E080818E7F80831092E20010926D
:1017A000DA001092E100A0EEB0E08C9181608C93A1
:1017B00080818F77808319BCA7EDB0E08C918E7FFC
:1017C0008C9380818F7E80831092AC010895FC0100
:1017D000AC014A5F5F4F8FEF91E32191822728E0B0
:1017E00030E087FF0BC0880F892721503109211570
:1017F0003105B9F7E417F50781F70895880FF5CF9C
:10180000982FE42FE2709093E900891308C0762F97
:10181000242F50E0E11111C091E0980FF4CF7091A6
:10182000EC002091ED005091F00021FD06C09F5F7B
:10183000973049F78093E90008953091EB003E7F9F
:101840003093EB003091ED003D7F3093ED0030910F
:10185000EB0031603093EB007093EC002093ED00CF
:101860005093F0002091EE0027FDE1CF0895A0E015
:10187000B0E0EDE3FCE00C944A34C8EDD0E08881A0
:101880008F7E8883E7EDF0E080818160808384E053
:1018900082BF81E08093AC0188818E7F888302EED5
:1018A00010E0F80110821092DA0081EEC82ED12CDF
:1018B000F601108288818F77888388818068888389
:1018C00088818F7D888319BC10926B021092AB01C6
:1018D00010924A021092AA0190EEE92EF12CF70123
:1018E00080818B7F808388818160888342E060E093
:1018F00080E00E94000CF60180818E7F8083F801D9
:10190000808181608083808188608083F70180810D
:101910008E7F8083888180618883CDB7DEB7E8E0E1
:101920000C9466349C012115310509F408958FE962
:101930009FE00197F1F700C0000021503109F3CF7B
:101940000F931F93CF93DF93EB018A0190916B026A
:10195000943079F58093E9008FEF9091E80095FD40
:1019600007C095ED9A95F1F7000081508111F5CFF0
:101970008091E80085FF1DC00E94970B811114C063
:101980008091E80085FD06C08091E8008E77809305
:10199000E800F2CF88818093F10001501109011510
:1019A000110511F02196ECCF8091E8008E7780939D
:1019B000E800DF91CF911F910F910895CF93DF93AE
:1019C000D82FC92F48E050E0682F792F81E00E947E
:1019D000A00C88E0ED2FFC2FA5EBB1E001900D925B
:1019E0008A95E1F7DF91CF910895BC0146E050E080
:1019F00084E00E94A00C0895BC0143E050E084E024
:101A00000E94A00C0895A0E0B0E0E9E0FDE00C9495
:101A10004834F82EE92EB62EA72E8A018091A8010F
:101A2000CC24C394D12C8A3018F48AE0C82ED12C4F
:101A3000C1E0D0E06B2D7A2D8F2D9E2DF8010995F8
:101A4000811116C02196CC16DD0694F0CC9FC00102
:101A5000CD9F900D900D112420E030E045E34A9594
:101A6000F1F700002F5F3F4F28173907B9F7E2CF92
:101A7000CDB7DEB7EAE00C9464349091960492FB03
:101A8000222720F9281779F080FB92F99093960489
:101A9000609195047091960484E090E00E941E3558
:101AA00082E00E94890408951F93CF93DF93962FBD
:101AB000122F632F8330D8F49C30C8F44630B8F42A
:101AC000C42FD0E0CC0FDD1F2CE0929FC00DD11DA4
:101AD000112490E9899FC00DD11D1124CE01899652
:101AE0000E940035612FCE018A960E940035DF9159
:101AF000CF911F910895CF93DF93CDE9D2E060E0BD
:101B0000CE010E9400352196C11584E0D807B9F7AF
:101B1000DF91CF910895882381F06DE385E290E015
:101B20000E94003569ED86E290E00E94003568E190
:101B300087E290E00E94003508956FEF85E290E023
:101B40000E9400356FEF86E290E00E9400356FEF53
:101B5000EFCF0F931F93CF93DF9301E714E0C9ED0D
:101B6000D1E0CE010E94E234F80161918F01861725
:101B700019F0CE010E9400352196CD3FF1E0DF073C
:101B800081F7DF91CF911F910F9108950F931F93CC
:101B9000CF93DF9301E714E0C9EDD1E0CE010E94BD
:101BA000E234F80181938F012196CD3FF1E0DF0708
:101BB000A9F7CCE9D4E0FE0185919491009711F04A
:101BC000FC0109952C96F5E0C839DF07A1F7DF91F4
:101BD000CF911F910F9108950F931F93CF93DF9390
:101BE000833030F56C3020F5463010F5C42FD0E04E
:101BF000CC0FDD1F2CE0629FC00DD11D112430E9F8
:101C0000839FC00DD11D1124CE0189960E94E2341C
:101C1000082F10E0102F0027CE018A960E94E23490
:101C20009801282BC901DF91CF911F910F91089541
:101C300080E090E0F8CF462F672F209191023091FD
:101C40009202232B91F4703F39F4403F71F480915C
:101C50008F029091900208957C3038F4463028F439
:101C6000833018F40E94EC0D089580E090E0089510
:101C7000A0E0B0E0EEE3FEE00C944B347C01009178
:101C8000700480916F04082BC2E0D0E010E0C8011E
:101C90000C2E02C0959587950A94E2F780FD09C045
:101CA0002197A8F7D12C8D2DCDB7DEB7E7E00C94A6
:101CB0006734DC2EB7018C2F0E941B0E0E94B105E9
:101CC000019771F3F0CFCF93DF93D82FC92F0E94E4
:101CD000380E6D2F7C2F0E941B0E0E94B105DF91E4
:101CE000CF910895FC018481882371F087819085CC
:101CF000009729F00E94B1050E94B40308958081E5
:101D000091810E94630EF8CF80E008951F93CF93D6
:101D1000DF93182FD92F662399F0442389F00E946E
:101D2000380EC82F682F812F9D2F0E94F303612F3B
:101D30007D2F8C2F0E941B0EDF91CF911F91089554
:101D40000E942A04C82FF3CFFC01462F878190857B
:101D5000009729F46581808191810E94860E089503
:101D600085E290E00E94E2348D3389F486E290E0CF
:101D70000E94E234893D59F487E290E00E94E23407
:101D800091E0883109F090E0892F8170089580E01A
:101D9000FCCFCF93DF93C091BA038091BC03C82BD3
:101DA0008091B9038823E9F08091730490917404C1
:101DB000892B29F00E94530981110E94B304D0910C
:101DC000B90320E086E991E0FC01308101963111F0
:101DD0002F5F31E08C399307B9F721110E94B304CA
:101DE000CD2BC093940148E050E067E972E084E9AC
:101DF00091E00E94B534892BA9F088E0E4E9F1E094
:101E0000A7E9B2E001900D928A95E1F7E091950281
:101E1000F0919602309731F00280F381E02D84E951
:101E200091E00995DF91CF910895882399F19CEF76
:101E3000980F913A40F4682F84E991E00E943809A4
:101E40000E94C90E089590E2980F983050F4877060
:101E500091E001C0990F8A95EAF7892F0E94AB049F
:101E6000EFCF9BE5980F933028F480E090E00E943C
:101E7000D208089598E5980F9B3128F480E090E00F
:101E80000E94F808089593E3980F933118F460E0E6
:101E90000E94D7090895CF93DF93EC010E94150F9C
:101EA000CE01805E9109089720F069E77FE02097D6
:101EB00011F468E67FE0CE010E948803DF91CF91A4
:101EC0000895882321F00E94A5040E94C90E089558
:101ED000882321F00E94AB040E94C90E0895882334
:101EE00039F09091BC03892B8093BC030E94C90EEA
:101EF0000895882341F080959091BC0389238093B5
:101F0000BC030E94C90E0895CF931092BA03C6E095
:101F1000E6E9F1E0DF018C2F1D928A95E9F780E078
:101F200090E00E94D20880E090E00E94F8081092B1
:101F3000BC030E94C90EE4E1F3E0DF011D92CA95E3
:101F4000E9F71092120310921103109213030E94EA
:101F5000AF09CF9108950E94840F2FEF84E39CE096
:101F6000215080409040E1F700C0000088E19AE0F5
:101F70000FB6F894A895809360000FBE9093600010
:101F8000FFCFCF92DF92EF92FF92FB018FEF9FEF97
:101F90004430510508F481C0C080D180E280F380D4
:101FA0000E94840FD701C601B695A795979587958E
:101FB0008170282F220FD701C60181709927AA2787
:101FC000BB27822BB701A60132E07695679557951E
:101FD00047953A95D1F74170440F440F842BB701D0
:101FE000A601E3E07695679557954795EA95D1F771
:101FF0004170440F440F440F842BB701A601F4E055
:102000007695679557954795FA95D1F74170429522
:10201000407F842BB701A601A5E07695679557957B
:102020004795AA95D1F741704295440F407E842B85
:10203000B701A601B6E07695679557954795BA958D
:10204000D1F741704295440F440F407C842BB70177
:10205000A60197E076956795579547959A95D1F79C
:10206000479544274795842B80939504D1FA882778
:1020700080F9880F9D2D9170892B909196049C7FFB
:10208000892B80939604609195047091960484E066
:1020900090E00E941E3580E090E0FF90EF90DF908E
:1020A000CF900895E1E7F4E0128E138E8FEA90E06E
:1020B0009183808325E0248F88E893E19383828352
:1020C0008AE090E09583848344E150E0578346831F
:1020D00048E050E051874087938782876EE170E047
:1020E000758764879787868780E590E0918B808BE2
:1020F000538B428B48E250E0558B448B42E350E0D7
:10210000578B468B48EC50E0518F408F158E178EC1
:10211000168E91A380A322A30E94A90D0E94840F72
:10212000109296041092950480E084608093960447
:1021300060E074E084E090E00E941E350E94C60DCD
:102140000895AAE2B0E0E7EAF0E10C944F348DEA9A
:1021500091E0FC0101962091F100208321E0853B74
:102160009207B9F78091AE01893009F456C0C8F4DE
:10217000823009F4B3C0833009F482C0813071F138
:102180008091E80083FFE7C08091AD019091AE019E
:102190009A3008F0E0C0E92FF0E0E05BFA4C0C94D4
:1021A0009F348A3009F489C08B3051F78091AD019A
:1021B000813231F78091B1019091B201892B01F701
:1021C0008091E800877F8093E8000E94780B8091DF
:1021D000AF01809300010E94840FD2CF8091AD01A6
:1021E000813A71F68091E800877F8093E8008091C2
:1021F000B1019091B201892B61F060E080E090E044
:1022000070E00E941F0B8091E8008B778093E800BC
:10221000B7CF68E085EB91E0F3CF8091AD018132DB
:1022200009F0AECF8091B1019091B2018D7F892BE1
:1022300009F0A6CF8091E800877F8093E800809125
:10224000E80082FF18C09091F3008091F20002979D
:1022500031F48091F100813011F0863021F48091C9
:10226000F1008093BD018091E8008B778093E800B6
:102270000E94780B85CF80916B028111E0CF80CFD7
:102280008091AD01813A09F07BCF8091B1019091AD
:10229000B201892B09F074CF8091E800877F809389
:1022A000E8008091E80080FFFCCF809100018093DE
:1022B000F1008091E8008E77D9CF8091AD01813215
:1022C00009F05ECF8091E800877F8093E8000E944C
:1022D000780B8091B0018093A90152CF8091AD011C
:1022E000813A09F04DCF8091E800877F8093E80024
:1022F0008091E80080FFFCCF8091A901D8CF803881
:1023000089F0823841F58091B1018F70873018F5DE
:102310008093E9008091EB0085FB882780F910927B
:10232000E90006C08091AA0190914A029111826051
:102330009091E800977F9093E8008093F1001092CD
:10234000F1008091E8008E7723C0811116C0809142
:10235000AF01813011F18091E80083FF0AC08091C4
:10236000E800877F8093E8008091EB008062809393
:10237000EB00AA96E3E00C946B34823061F7809115
:10238000AF01882389F01092E9008091E800877FEF
:102390008093E8000E94780BDECF81E0933009F053
:1023A00080E080934A02EFCF8091B1018F702FEFD0
:1023B000280F263080F68093E9002091EB0020FF63
:1023C000E2CF933031F48091EB0080628093EB0098
:1023D000DACF9091EB0090619093EB0021E030E038
:1023E000A90102C0440F551F8A95E2F74093EA0005
:1023F0001092EA008091EB008860E8CF8111ABCFAA
:102400001091AF011F778091E3008078812B80933A
:10241000E3008091E800877F8093E8000E94780BBA
:102420008091E80080FFFCCF8091E300806880937A
:10243000E30083E0111101C082E080936B028BCF37
:102440008058823008F087CF4091AF015091B001A1
:102450004C3D83E0580799F583E08A838AE28983BB
:102460004FB7F894DE01139620E03EE051E2E32FEF
:10247000F0E050935700849120FF03C082958F7045
:102480003F5F8F708A30C8F0895C90E08D939D9398
:102490002F5F243161F74FBF8091E800877F8093E1
:1024A000E8006AE270E0CE0101960E941F0B809165
:1024B000E8008B778093E8004ECF805DE6CF809177
:1024C000B1019091B201252F33272330310509F452
:1024D0004AC078F52130310509F483C08BE590E0DE
:1024E000EDE3F2E02230310509F035CF2091E8002C
:1024F000277F2093E8002091B3013091B401821727
:10250000930708F49C0140E02115310509F06EC0E5
:1025100041116CC08091E80082FDC9CF80916B02AF
:10252000882329F2853019F28091E80083FFF2CFE9
:10253000BECF2132310509F445C02232310509F000
:102540000ACF8330910508F006CFFC01EE0FFF1F84
:10255000EE5BFE4F0190F081E02D815C9E4FDC012F
:102560008C9190E010C0CA019927423019F1833054
:10257000910568F4892BB1F4EEEDF2E0E4918E2F31
:1025800090E0EEEDF2E0009709F4E5CEAFCF0397CF
:1025900009F0E1CEEAEAF2E0E4918E2F90E0EAEA77
:1025A000F2E0F1CFE8EDF2E0E4918E2F90E0E8ED7B
:1025B000F2E0E9CFE8ECF2E0E4918E2F90E0E8EC75
:1025C000F2E0E1CF8330910508F0C5CEFC01EE0FBB
:1025D000FF1FE85BFE4F0190F081E02D89E090E065
:1025E00085CF82E190E0E8E9F2E080CF80916B0254
:1025F000882309F45CCF853009F459CF8091E80035
:1026000083FD55CF8091E80082FD84CF8091E80062
:1026100080FF7ACF9091F3008091F200211531056F
:1026200019F08830910550F041E0089709F040E03A
:102630008091E8008E778093E80066CF44914093C4
:10264000F1003196215031090196E8CF803809F028
:1026500082CE8091E800877F8093E8008091AB0173
:102660008093F1006ECE811176CE1091AF011230C1
:1026700008F071CE8091E800877F8093E800109386
:10268000AB010E94780B1123D1F084E080936B02A0
:1026900042E061EC81E00E94000C42E261EC84E0E7
:1026A0000E94000C42E261EC82E00E94000C42E2D7
:1026B00060EC83E00E94000C80916B024CCE809114
:1026C000E30087FDE2CF81E0E1CF80913001877F99
:1026D000809330019091BC039D7F9093BC0384FF55
:1026E00006C08F7E8093300182E00E94A504809115
:1026F000300185FF06C08F7D8093300180E20E940B
:10270000A5040E94C90E0895CF93DF93EC014A857A
:102710005B856E857F850E94BC089B81909580912A
:10272000BC0389238093BC038C810E94AB040E946C
:10273000C90E86E0FE0111928A95E9F7DF91CF91EB
:102740000895CF93DF93EC018D8181FD14C08260E9
:102750008D838091BC039B81892B8093BC038C81EA
:102760000E94A5040E94C90E488559856E857F8503
:10277000CE010E94BC0810922503109224038D8183
:1027800080FD03C0CE010E948413DF91CF91089594
:102790009C01CB01BA01F90132964591549164171D
:1027A000750748F0F9013496659174910E94C2341E
:1027B00080E090E008958FEF9FEF08959C01DA018B
:1027C0000296FC0145915491FC0185919491A817C2
:1027D000B90758F0F9013496859194910E94C2345A
:1027E0000E94A90D80E090E008958FEF9FEF08957B
:1027F000A6E1B0E0EEEFF3E10C9445341A821982C1
:10280000FE0133968AE0DF011D928A95E9F78EE496
:10281000A82E81E0B82E8E010F5F1F4F4801EE24D5
:10282000E394F12C2AE5C22E21E0D22EF50181910C
:102830005F018F3F09F441C0F894E82FE295EF70F3
:10284000F0E021A18F70A70102C0440F551F8A95A7
:10285000E2F7CA01922F982B91A392A18095892328
:1028600082A3789400C0E4E5F1E031E0712C21917D
:102870002F3F09F48AC0A22FA295AF70A05EB0E0EE
:102880008C9190E02F7002C0959587952A95E2F77C
:10289000817081117AC0832F782A330FCE16DF061C
:1028A00031F7F501319780818F3F11F00E94CC06FE
:1028B00050EA5A95F1F7D8017C920F5F1F4FB4E5AB
:1028C000AB16B1E0BB0609F0B1CF4CE050E0B4016B
:1028D0008BE392E00E94B5340091480210E0015A67
:1028E0001D4F892B09F453C08CE0F401ABE3B2E037
:1028F00001900D928A95E1F781E08093A5010E94F5
:1029000047099093A4018093A301809189028823B1
:1029100009F495C01E861D86FE013F9684E0DF0106
:102920001D928A95E9F78091A8018A3008F051C07C
:102930007E01BDE0EB0EF11C41EB55E1B701C80192
:102940000E94030D6701882309F467C04AE555E139
:10295000B701C8010E94030D882309F45EC01092DC
:10296000A8018091470290E046E050E0B601815A0C
:102970009D4F0E94B53421E02093A201892B09F0DC
:102980003FC06696EDE00C94613480E085CF809185
:10299000A501882309F4B9CF8091A3019091A401E6
:1029A0000E94FB0A059708F4B0CF46E050E06BE3C5
:1029B00072E0C8010E94B534892B41F086E0EBE358
:1029C000F2E0D80101900D928A95E1F71092A501ED
:1029D0009CCF8091A0019091A1010E94FB0A843FAD
:1029E000914008F0A5CF8091A201882351F2FE0109
:1029F0003D9686E0DF011D928A95E9F71092A201CB
:102A0000A0914702B0E0A15ABD4F86E0FE013D967D
:102A100001900D928A95E1F7B4CF8091A8018F3F84
:102A200039F40E9447099093A1018093A001DBCF64
:102A30008F5F8093A8018A3008F493CFF2CF86E0AD
:102A4000F801A5E7B2E001900D928A95E1F785E7DC
:102A500092E00E94E70B80937402C0907B02D090BA
:102A60007C02E0907D02F0907E0280919C0190912A
:102A70009D01A0919E01B0919F01C816D906EA065A
:102A8000FB0609F47ECFC0929C01D0929D01E0929A
:102A90009E01F0929F010E94AB0AC61AD70AE80A6B
:102AA000F90AC0928B02D0928C02E0928D02F092D1
:102AB0008E0267CFA8E0B0E0E0E6F5E10C944F3479
:102AC00040916C0250916D0260916E0270916F02A4
:102AD0002FB7F8948091700290917102A0917202C8
:102AE000B09173022FBF841B950BA60BB70B11E09F
:102AF00084369105A105B10578F10E94C80ADC0170
:102B0000CB010296A11DB11D89839A83AB83BC833F
:102B100080912301909124018C589D4F2091220196
:102B2000422F50E0253010F044E050E0BE016F5FCE
:102B30007F4F0E94C23482E090E00E94CB33182F76
:102B4000882351F00E94AB0A60936C0270936D026F
:102B500080936E0290936F02812F2896E3E00C948D
:102B60006B34A7E0B0E0E7EBF5E10C944D34F62EC2
:102B7000072F80E090E00E94CB33182F882309F4C0
:102B800069C080911501482F50E0882311F041E081
:102B900050E060911601709117016C587D4FCE0185
:102BA00007960E94C234409185025091860260913E
:102BB0008702709188022FB7F894809170029091EB
:102BC0007102A0917202B09173022FBF841B950B0A
:102BD000A60BB70B84369105A105B10538F485E73E
:102BE00092E00E94E70B9F818917A1F181E090E0BC
:102BF0000E94CB338823C9F180911D01482F50E0FA
:102C0000873010F046E050E060911E0170911F0186
:102C10006C587D4FCE0101960E94C23485E792E048
:102C20000E94E70B9F81891320C00E94AB0A60932A
:102C3000850270938602809387029093880286E0D3
:102C4000FE013196AFE7B2E001900D928A95E1F76F
:102C500081E00CC086E0E5E7F2E0DE01119601902C
:102C60000D928A95E1F71111EACF80E096E0EFE747
:102C7000F2E0AF2DB02F01900D929A95E1F72796D3
:102C8000E5E00C946934A4E1B0E0E9E4F6E10C94E9
:102C90004534A0901001B090110181E090E0909334
:102CA000110180931001812C912CE12C6401F12CF5
:102CB00015C0F80125913491472D6F2D8E2D0E945E
:102CC000540D0E5F1F4F739486E07812F2CFA6E08A
:102CD000CA0ED11CF394BCE0FB1639F08601000F3C
:102CE000111F0E511D4F712CE4CFE39488E4880E20
:102CF000911CA3E0EA12DACF0E9452101A821982C4
:102D00001C821B821E821D8218861F8288EC90E026
:102D10009A8789870DEF11E04AE050E0B801CE01B3
:102D200001960E942435065F1F4F0D34B2E01B0749
:102D300099F7FE013B968AE0DF011D928A95E9F73B
:102D40007F014AE050E0B801C7010E942435065FC8
:102D50001F4F0D39B2E01B07A1F7B0921101A092ED
:102D600010016496EDE00C94613480E00E948B0DBC
:102D700060E088E290E00E9400350E9443160E94C5
:102D80007B0D81E00E948B0D0895A8E0B0E0EBEC94
:102D9000F6E10C94503466EE7EEF80E090E00E9405
:102DA0001E3560E082E090E00E94003581E0809373
:102DB0006F0461E083E090E00E94003560E074E120
:102DC00084E090E00E941E3560E086E090E00E9482
:102DD00000356FEF87E090E00E94003540E050E062
:102DE000BA0188E090E00E94123560E084E290E051
:102DF0000E94003560E087E190E00E94003560E0CD
:102E00008CE090E00E94003560E08DE090E00E9450
:102E1000003519821A821B821C821D821E821F822B
:102E2000188648E050E068E170E0CE0101960E940B
:102E3000F03440E050E0BA0180E290E00E941235A8
:102E400080E00E948B0D0E94B51640E050E0BA0170
:102E50008FE090E00E94123540E050E0BA0183E13B
:102E600090E00E9412352896E2E00C946C348B328C
:102E700058F4853090F0EBEFE80FE63270F4F0E0B4
:102E8000E65AFA4C0C949F34833448F48A3308F0A1
:102E900060C0853331F0883361F080E00895833479
:102EA000E1F781E00E94D1030E94840F02C00E94DA
:102EB000C51681E0089580914B02807F80934B027C
:102EC00081E080931003F5CF809110019091110162
:102ED000892B79F30E94840F2FEF84E39CE021502B
:102EE00080409040E1F700C000000E940A0B9091E2
:102EF0004B02892F8E7F90FF816080934B0280FD73
:102F0000D8CF817F80934B02D4CF90914B02892FF1
:102F10008D7F91FF826080934B0281FFCACF8091A9
:102F20004B028160EFCF90914B02892F8B7F92FFF4
:102F3000846080934B0282FDF2CFBBCF90914B0215
:102F4000892F877F93FF886080934B0283FDE7CFB3
:102F5000B0CF895391E001C0990F8A95EAF7892F84
:102F6000A1CF8D51F7CFCF93C82F8823E1F18CEFFC
:102F70008C0F813A08F0C1C080911003813001F1BB
:102F80008230B1F1811131C08091BA03823229F4CB
:102F90008C2F0E943717811126C0E6E9F1E08CE9F9
:102FA00091E02191C21709F4D8C08E179F07C9F785
:102FB0006C2F84E991E00E941E090E94C90E13C083
:102FC0008091BA03823221F3C43179F040F4CB30DE
:102FD00051F0C03111F782E08093100304C0C93270
:102FE00021F0C833D1F6CF91089510921003D5CFB8
:102FF000CF3409F46FC0B0F4C83290F4CE3140F54C
:10300000C73009F449C0C43171F780910F03882398
:1030100051F310920F0310920E0310920D03E3CFA1
:10302000C932F2CFC13509F44AC091E0C23509F482
:1030300052C0C035C1F6E0910D03F0910E033097F8
:1030400091F280818A50990B97FF55C01082CBCFA7
:10305000CD51C0930F03C430C9F078F48EE291E0F3
:10306000C23031F08DE291E0C33011F08FE291E097
:1030700090930E0380930D03B6CFC53051F08AE2D2
:1030800091E0C630A9F310920F03ADCF8CE291E02E
:10309000EFCF8BE291E0ECCF81E080932F0184E1D0
:1030A00080932E018AE080932D018EE180932C0184
:1030B00088E080932B0188E280932A0194CFE091ED
:1030C0000D03F0910E03309709F48DCF808181506C
:1030D000990BBACF9AE0E0910D03F0910E0330976F
:1030E00009F481CF8081890F9927991F8F3F91051E
:1030F00011F00CF08FEF808376CF80E28C0F883058
:1031000048F4C77081E001C0880FCA95EAF70E94B1
:10311000A50453CF8BE58C0F833038F42C2F245229
:10312000330BC9010E94D2085ECFE8E5EC0FEB310A
:1031300050F4F0E0EE0FFF1FE45AFE4F80819181C2
:103140000E94F80850CF83E38C0F833108F04BCFF7
:1031500061E08C2F0E94D70946CF6C2F84E991E063
:103160000E9438090E94C90E23CFCF93DF93EC0150
:10317000805E9109089720F06FE67FE0209711F4B8
:1031800061E67FE0CE010E9488038C2F0E94B31776
:10319000DF91CF910895662329F02091BC0322602E
:1031A0002093BC039C0130522115304308F4992729
:1031B0000E94B5180895CF92DF92FF920F931F934C
:1031C000CF93DF93EC018B01F42E8091300182FFCD
:1031D00066C0C090AA03D090AB03CC16DD0619F0F0
:1031E000209709F05CC0809130018B7F8093300183
:1031F000C1E081FD10C08091A8039091A9039801BE
:10320000281B390BC1E080910C0190910D0128170A
:10321000390708F4C0E0C17080913001C0FB81F92A
:10322000809330016C2FC6010E94AF078091BA03D2
:1032300081FF08C08091300180618093300182E07D
:103240000E94AB048091BA0385FF08C080913001D1
:1032500080628093300180E20E94AB046C2FC60133
:103260000E94CB18FF2031F080918C0485FF02C0B2
:1032700086FF29C080918F04909190040E94920C47
:103280008091AA039091AB039C01305221153043E9
:1032900008F499270E944B0F0E94651310C0CE01BD
:1032A000905281159043B8F4CE0199270E944B0F9C
:1032B0008091AA039091AB03C817D90769F31093C3
:1032C000A9030093A803DF91CF911F910F91FF9065
:1032D000DF90CF900895CE01E9CF0F931F93CF9346
:1032E000C82F0091910410919204893321F000912C
:1032F0008F04109190048C2F0E94B31701151105B3
:1033000039F48C2F0E94150FCF911F910F910895C2
:103310008FE99FE00197F1F700C00000015011090B
:10332000EDCFA0E0B0E0E7E9F9E10C944B34EC011B
:103330009881992309F49CC09130E1F599818A81A3
:10334000913021F422960E946D1905C0923029F423
:1033500022960E94B3172196EBCF933021F4229648
:103360000E94150FF8CF943011F02196F4CF2296D9
:1033700020E030E06AE0AE014F5F5F4F8053990B71
:103380008A30910560F02115310529F38FE99FE01E
:103390000197F1F700C0000021503109F4CF629F7E
:1033A000F001639FF00D11249C012E0F3F1F8981B6
:1033B000EA01E1CFE92FF0E0E354FE4FD490292F4A
:1033C00026952695269530E0F901E355FE4F849128
:1033D0009770F901E356FE4FE490F12C092E02C0DC
:1033E000F594E7940A94E2F741E0E422FF24F9011E
:1033F000E357FE4F049110E0092E02C01595079582
:103400000A94E2F701701127E82FF0E002C0F59569
:10341000E7959A95E2F7E0FD0CC0E114F104A1F400
:103420008D2D0E946D190115110509F494CF8CE2C0
:103430008ACF81EE0E94B317E114F10479F48D2D47
:103440000E946D1981EE07C086EE0E94B3178D2D84
:103450000E946D1986EE0E94150FE5CF86EE0E9440
:10346000B3178D2D0E946D1986EE0E94150FEACFBD
:10347000CDB7DEB7E7E00C946734AAE0B0E0E3E450
:10348000FAE10C944A34E3EEF1E080E5DF011D92AD
:103490008A95E9F7E0ECF3E088E3DF011D928A9575
:1034A000E9F783EEC82E81E0D82E7F010DE412E00B
:1034B000F701D182C0824AE050E0B801CE01019606
:1034C0000E94D23488E0FE013196D60101900D921F
:1034D0008A95E1F789859A85D70113969C938E93F7
:1034E0001297BAE0CB0ED11CE7E0EE0EF11C065F9E
:1034F0001F4F0D39F2E01F07D9F62A96E8E00C9429
:103500006634282FCB01283070F44AE0249F9001C4
:103510001124B90163507E4F4AE050E00E94D2343A
:1035200080E090E008958FEF9FEF0895AAE0B0E06B
:10353000ECE9FAE10C9450349C0197558F3F9105CA
:1035400009F070F4BE016F5F7F4F822F0E94811AD5
:10355000892B31F489859A852A96E2E00C946C34A3
:103560008091890490918A04F7CFA0E0B0E0EBEB62
:10357000FAE10C944B34D62E172FC42FD22F882368
:10358000A9F04093B5030E9447099093A701809347
:10359000A601C77081E001C0880FCA95EAF70E94B2
:1035A000610FCDB7DEB7E7E00C9467348091B503C7
:1035B000481337C08091A6019091A7010E94FB0A91
:1035C0007C018D2D912F0E94961AE816F90648F578
:1035D000CD130CC0802F0E946D19D77081E001C0FF
:1035E000880FDA95EAF70E94680FDBCFC77011E009
:1035F000812F01C0880FCA95EAF70E94680F80E208
:103600008D0F883050F48D2F877001C0110F8A956F
:10361000EAF7812F0E94610FDDCF802F0E946D1984
:10362000C0CFC77081E001C0880FCA95EAF7DBCF31
:10363000A4E0B0E0EEE1FBE10C9448346C01DC0165
:1036400014968C91882309F4C1C361E0C6010E94DD
:10365000A40E8C01F6018581882319F18091240341
:10366000909125030097E9F008171907D1F09927E1
:1036700064E0880F991F6A95E1F7FC01E35DFC4F58
:10368000208124602083885D9C4FDC010D931C9376
:103690000E94A1131092BC0361E0C6010E94A40E17
:1036A0008C01F6018581882309F4BAC0C8019757B7
:1036B0008038910508F054C1F02EFFE0F01708F4AF
:1036C00075C38FEF93E00E94E23481116FC30DE95F
:1036D00012E0F1103CC08091320190913301A09131
:1036E0003401B091350189839A83AB83BC8378011F
:1036F0004FEFE41AF40AC8010E94E23489831A8267
:10370000882309F453C3813009F084C0580152E082
:10371000A50EB11CC7010E94E234F82E8A838823CB
:1037200009F444C3C5010E94E234E82E8FEF8F0DE7
:103730008330D8F4EB82EE2021F0CE0101960E9476
:103740009119580183E0A80EB11C8501D0CF011555
:1037500024E0120709F42AC3C8010E94E2340F5F73
:103760001F4F8111F4CFFA94B4CF8BEF8F0D8330BC
:1037700040F5580193E0A90EB11CEB82EE2029F32D
:10378000C5010E94E2348C83882381F08B819C8167
:103790008130AFEF9A0710F0982F8827B6E0FB161C
:1037A00051F0E7E0FE1651F00E948D295801F4E037
:1037B000AF0EB11CCACF0E944929F8CF0E946B29D5
:1037C000F5CF24E0F212C1CF580144E0A40EB11CA1
:1037D000C80103960E94E234EE2009F4E7C2882370
:1037E00009F4E4C28150990B4FEF489F9001499F23
:1037F000300D1124AE2DA150BB0B2A0F3B1F2150C1
:10380000310908F4A2CFEFE9FFE03197F1F700C0EA
:103810000000F5CFCE0101960E949119570195CF76
:10382000011527E5120708F4D8C0011548E514076B
:1038300008F09DC0780157E5F51A6AE173E08E2D16
:103840000E94811A892B31F5C70144E0880F991F26
:103850004A95E1F7FC01E85DFC4F2281213009F037
:103860006AC020911A0330911B03232B99F02091F9
:103870001C0330911D03232B69F020911E0330910E
:103880001F034091200350912103242B352B232B20
:1038900009F45BC0F801FF2734E0EE0FFF1F3A95F3
:1038A000E1F7CF01885D9C4F7C01D60115968C9184
:1038B000E35DFC4F908180FB90F99083882309F4AD
:1038C0006BC00E9447099093270380932603F7015A
:1038D00082818F5F82838091BC039091BA03892B90
:1038E00083838091B9038483468157816685778578
:1038F000C7010E94BC08D70115968C9181FD49C073
:10390000902F812F909324038093250380918C0422
:1039100080FFC7C10E9447095C01F60185818111C2
:103920006EC0013E110509F0F2C0809130018F7E1A
:1039300080933001B6C0223009F0ACCF20911E0335
:1039400030911F03232B09F4A5CFFC01E35DFC4F4D
:1039500020812E7F2083885D9C4F0E94A1139ACFE7
:10396000C80197558F3F910509F008F493CF8091D6
:103970008C0480FDCFCFD60115968C91F801E851CB
:10398000FC47E730F10508F08CC1E058FA4C0C9484
:103990009F3490E080E0B6CFD7011C964D915C91AA
:1039A0001D971E966D917C91C7010E94BC08F7017E
:1039B000858181FFABCFC7010E948413209124032E
:1039C0003091250380918C040217130709F0A0CFD2
:1039D00010922503109224039BCF80918C0480FDCC
:1039E00099CF07372CE7120709F43AC382E008376A
:1039F0004CE7140709F098C00E94E3032BC38091A1
:103A0000300182FF06C040E0B50180E090E00E94F6
:103A1000DB180431FCE71F07C9F105312CE7120759
:103A200009F1D60115968C910331BCE71B07E1F52E
:103A300090913001916090933001882309F474C013
:103A40001092AB031092AA031092B503C8019057CD
:103A5000839708F40EC20631BCE71B0709F050C07B
:103A600081E02EC190913001892F8E7F90FF81607F
:103A7000809330010E9465138091300180FF4FC018
:103A8000F6018581882309F40CC12CC08091300196
:103A90008E7F809330010E9465138091300180FDFC
:103AA000EFCFF60185813EC0980130522115304399
:103AB000F0F0D60115968C919091300190FF5BCF7C
:103AC0000832110508F0A0C00E31110508F0DEC063
:103AD0009801245031092A31310508F4AEC08823F9
:103AE00009F47FCF1092AB031092AA03DAC01092B0
:103AF000AB031092AA03882309F442C01092B503C5
:103B00000737ECE71E0709F09DC281E0A1C2053E20
:103B1000110581F5809130018F7D80933001D601B0
:103B200015968C91811190CFD60115968C91882392
:103B300039F10A35BCE71B0709F4AEC208F092C29E
:103B40000130FCE71F0709F4A5C203302CE7120778
:103B500009F49AC201151C4799F40E94840F9FEF43
:103B6000A4E3BCE09150A040B040E1F700C00000E9
:103B70000E940A0BC80190528115904308F099CF1A
:103B8000D60117968D919C91009709F489C20E94E5
:103B9000B1058C01D6011596BC9015971696EC9040
:103BA000E2942FE0E2228091BD038770882301F127
:103BB000AB2CBB20F1F0812F807F803461F080E25C
:103BC000800F8830A8F0812F807E803221F402306F
:103BD00078F0EE2069F08091960482FF09C082E0BF
:103BE0000E9489048091BD038770AA24A394811147
:103BF000A12CE12FE295EF70103C08F083C2F0E0B9
:103C0000E957FA4C0C949F340933110558F40D32DE
:103C1000110508F040C00B321105E9F1882309F4C1
:103C2000E0CE0ECF04361105B1F1882309F4A3CEFE
:103C30001092AB031092AA039ECE90918C0494FD37
:103C40004ECF882309F4E3C08091B9039091BA0361
:103C5000892B8D7F882309F45DC01092AB031092ED
:103C6000AA0380918C0481FD55C060E0C8010E94C8
:103C7000AF0760E0C8010E94CB188091B9038D7F27
:103C80000E949B0982E00E94890490C090918C045C
:103C900093FD25CFD6CF90918C0492FFD2CF811186
:103CA000C7CFF601858181111092B503D601159613
:103CB0008C918111CBCE0631FCE71F0709F091CE24
:103CC0009091BA0330918B0430FF04C0292F2474E3
:103CD00021119EC1292F2A7A31FF04C0492F417139
:103CE000411120E0432F487032FF94C1392F3878BA
:103CF000332309F48FC14111A3C1811196C1809171
:103D0000B60365E3811101C069E284E991E00E9494
:103D1000380993C189E0F601ACEAB3E001900D9255
:103D20008A95E1F71092AF031092AE038091AA0337
:103D30009091AB030817190709F04CC020918C042F
:103D400025FF48C03091300131FF02C026FF42C03C
:103D50002091A8033091A9037501E21AF30A0E9489
:103D6000961AE816F906B0F58091BA0381FF08C0EB
:103D70008091300180618093300182E00E94AB0429
:103D80008091BA0385FF08C08091300180628093E2
:103D9000300180E20E94AB04609130016695617051
:103DA0008091AA039091AB030E94CB188091BD0330
:103DB0008770882359F0F6018581882339F0809136
:103DC000960482FF03C082E00E9489042496EAE000
:103DD0000C9464348091B903F090BA03F82AF1FA94
:103DE000FF24F0F88D7F0E949B091093AB03009392
:103DF000AA03B092A903A092A803FF0C6894F2F85A
:103E000090913001997FF92AF09230013BCF40E048
:103E1000B501C8010E94DB18C9CF06E221EE41EED0
:103E20006AE17CE70E94B51AC1CF07E225EE45EEB4
:103E30006BE17CE7F7CF06E221EE40EE68E17CE73C
:103E4000F1CF07E225EE44EE69E17CE7EBCF06E235
:103E500021EE42EE6CE17CE7E5CF07E225EE46EE8F
:103E60006DE17CE7DFCF08E221E045EE6EE17CE723
:103E7000D9CF84E090E00E94EA3490939604809336
:103E80009504F801E150F047E232F10520F4ED56D7
:103E9000FA4C0C949F348091950481608093950432
:103EA000609195047091960484E090E00E941E3524
:103EB0000E94840F7BCF8091960488608093960443
:103EC000EFCF809195048260E9CF80919504846062
:103ED000E5CF809195048860E1CF80919604816060
:103EE000EDCF809196048260E9CF80919504806146
:103EF000D5CF809195048062D1CF80919504806464
:103F0000CDCF0E94840F809195048068C7CF8091A7
:103F100095048C60C3CF809196048360CFCF80914D
:103F200095048E7FBBCF80919604877FC7CF809109
:103F300095048D7FB3CF809195048B7FAFCF809117
:103F40009504877FABCF809196048E7FB7CF809109
:103F500096048D7FB3CF809195048F7E9FCF809103
:103F600095048F7D9BCF809195048F7B97CF0E9486
:103F7000840F809195048F7791CF80919504837FF2
:103F80008DCF809196048C7F99CF8091950482FB90
:103F9000992790F921E0922790FB82F990FB83F911
:103FA0007DCF80919604982F909591708E7F892B6C
:103FB00090FB81F983CF90919504892F8F7B96FF99
:103FC00080646CCF0E94840F90919504892F97FB99
:103FD00087F9805863CF61E08EE090E00E94003561
:103FE0005FCF60E0F9CF90919504892F8F7E94FF89
:103FF000806154CF90919504892F8E7F90FF8160CE
:104000004DCF90919604892F877F93FF886056CF7C
:1040100020E062CE442319F0927291116ECE882373
:1040200009F46DCE65E3211102C080E069E280935E
:10403000B60384E991E00E941E090E94C90EB6CE23
:1040400020E0EACF82E008375CE7150709F06CCD85
:104050000E94D70343E062E081E00E945E04A6CEA6
:1040600081E0CACC0B355CE71507C1F00C351C4765
:1040700009F086CD8091960482FB882780F991E033
:1040800089270E943D0D7CCD6FEF7FEF80E090E0AF
:104090000E941E350E94AB0F81E0F3CF80E0F1CF8C
:1040A000F6018581E080F180882369F0C7010E94D4
:1040B000380E182F682FC7010E94F303B701812F14
:1040C0000E941B0E64CDC7010E942A04182FF6CF50
:1040D000B12FBF70FB2E103118F0F29490EFF9223F
:1040E000BB2019F1FF2059F080E2800F883010F0DA
:1040F000011115C08F2D0E94A5040E94C90E802FAA
:104100000E94B317C8010E94B403882309F484C035
:10411000BB2009F49DC2EE2009F45CC07DC08091F3
:10412000BC038F298093BC03E8CF802F0E94150F1A
:10413000FF2041F380E2800F883010F0011104C0AD
:104140008F2D0E94AB0406C0F0948091BC038F2198
:104150008093BC030E94C90ED5CFE12FEF70FE2ED5
:10416000812F807F803219F0F29480EFF8220023B3
:1041700069F0013009F4B0C0BB2009F4C4C0EE20DE
:1041800009F4BCC0802F0E94B31746C080919604EA
:1041900082FD12C0BB2049F0FF2029F08F2D0E9424
:1041A000A5040E94C90E80E0ABCF80E00E94150FED
:1041B000FF2009F4A7CFC4CFBB2009F452C0E110FF
:1041C00022C08F2D0E94610F80E0912F0E94B403C6
:1041D000882311F1AA2009F436C28091BD0380FD25
:1041E00032C2F60115828695869586950E94D70380
:1041F000C6010E94181B8091BD0386958695869501
:104200000E94E30320C2F1E0EF1215C00091B90350
:104210008F2D8023F81205C01092980410929704F5
:10422000D9CF0E9447099093B8038093B7030F2911
:104230000093B903F1CF80918D04823068F3E812C6
:10424000EBCF8F2D0E94610F8F2D0E9485098091E9
:10425000BB039F2D9823F916F9F28F298093BB0396
:10426000DBCFE11019C08F2D0E94680F8F2D0E94A7
:1042700085098091BB039F2D9823911108C080E090
:10428000912F0E94B403882339F2FA2C8CC1F09448
:10429000F822F092BB03F3CF80918D04823008F4B2
:1042A000BBCF21E0E212B8CF8091BA038F218823DF
:1042B00009F4B2CF8F2D0E94680F8F2D0E948509BF
:1042C0008091BB039F2D9823992309F4A5CFF094E7
:1042D000F822F092BB03A0CF80919304BB2039F069
:1042E0008E1508F499CF8F2D0E94610F0BCFE81621
:1042F00008F008CF8F2D0E94680F04CF8F2D0E94E9
:10430000610F802F62CFEE2081F080919104909117
:104310009204093321F080918F04909190040E94BF
:10432000920C802F0E94150F77CF8F2D0E94680F5F
:10433000802FA6CF812F869586958370882361F084
:10434000813009F0DFCEC8019370B11002C080E067
:1043500090E00E94F808D6CEC8019370B11002C058
:1043600080E090E00E94D208CDCE6B2D802F0E947D
:10437000D709C8CE812F8370811135C0B11028C0F4
:10438000402F429546954770440F440F802F8F7001
:10439000042E01C0880F0A94EAF7202F20712223EF
:1043A00039F02FE030E001C0220F4A95EAF720955E
:1043B000312F369536953370323081F0333061F0DD
:1043C00040916F04313039F0822B84230E94D10355
:1043D0000E94C10897CE842B822BF8CF822B90911C
:1043E0006F048927F3CFBB2059F110FFF1CF402F85
:1043F000429546954770440F440F802F8F70042ECE
:1044000001C0880F0A94EAF7202F2071222339F087
:104410002FE030E001C0220F4A95EAF72095312FB6
:10442000369536953370323089F0333069F04091EB
:104430007004313041F0822B84230E94D403C8CF12
:10444000823030F2D4CF842B822BF7CF822B909105
:1044500070048927F2CF412F4F70F42EBB2039F022
:10446000842F0E94D703802F0E94610FB1CF802F2D
:104470000E94680F8F2D0E94E303AACFFB2C023FFE
:1044800079F178F4003FC1F0013F09F440C0BB204E
:1044900009F4C4C0EE2009F4BEC0802F0E94B317F7
:1044A00097CF033F21F1043F71F1B110F3CFE11039
:1044B000BEC0812F8F71DFCF80919304BB2061F04C
:1044C000E81608F085CF212F2F7181E090E001C020
:1044D000880F2A95EAF7BBCF8E1508F479CFF3CF72
:1044E000812F8F71B110C7CF0E94D70371CF80E0A9
:1044F000BB2009F4A2CF81E0912F9F7101C0880FEA
:104500009A95EAF79ACF8091960482FD06C0812F92
:104510008F71BB2009F4AFCFE7CF80918D0482303B
:1045200008F461C0BB2041F19091BD0397709430B5
:10453000B9F41092BD031092BF031092BE03812FF5
:104540008F710E94E3030E94C10884EF912F0E94A3
:10455000B403811176C0109298041092970473C02E
:10456000E81688F7012F0F71802F0E94D70363E0B0
:10457000802F0E946E09E7CFE81688F11092BD03E4
:104580001092BF031092BE0364E0812F8F710E94CE
:104590006E090E94C10884EF912F0E94B403882302
:1045A000D1F2E110D8CF40E0D60115966C91159765
:1045B0008D919C910E94860E80918E0483FF09C08C
:1045C0008091970490919804029719F4802F0E948B
:1045D0006D191092980410929704AF2CFBCD81E0D6
:1045E0000E948904D6CFBB2059F0512F5F71F52E60
:1045F000852F0E94D70363E08F2D0E946E09E8CEBD
:1046000081E00E94890481E08E1508F0E1CE82E00D
:104610000E948904DDCE812F8F7166CFEE2009F4D0
:1046200048CF8091910490919204093321F08091B8
:104630008F04909190040E94920C802F0E94150F7D
:10464000C7CEE11088CF60E0C6010E94A40EBECBA9
:10465000E110E2CD1ACEA0E0B0E0E1E3F3E20C9489
:104660004B348091EF02803108F049C08091EE0216
:10467000882309F444C0C091A00289E0D82E80911B
:104680009F028C17E1F1EC2EF12CDC9EE00111244D
:10469000FE01EF55FD4F84818823B1F19181809116
:1046A000EA02981331C090818091E90298132CC0DE
:1046B0008581811129C0028113818091EB02909143
:1046C000EC02081B190B60E089EE92E00E94A40E38
:1046D0000E94961A08171907B8F48091EF028F709C
:1046E00080618093EF02C955DD4F88818F708061B2
:1046F000888389EE92E00E94181B0E947F04CDB748
:10470000DEB7E7E00C946734E7012196C770B7CFB6
:10471000AFE0B0E0EEE8F3E20C9443348C0186E0C5
:10472000F801DE011A9601900D928A95E1F7D80101
:10473000CC9011967C90119715966C9015971296C7
:10474000ED90FC90139714965C9089EEA82E82E071
:10475000B82E8091ED02811118C0552099F0662085
:1047600009F4BFC1C8010E94720E882309F4B9C1BF
:1047700089E0F801A9EEB2E001900D928A95E1F787
:104780000E942B23FF24F3944BC060E089EE92E05B
:104790000E94A40ED090EE028091EB029091EC0268
:1047A000DD2009F449C14701881A990A60E089EEC1
:1047B00092E00E94A40E0E94961A8816990608F0AC
:1047C000F6C05520F9F2B090EF029091EA02F8019C
:1047D0008181FFE0FB1508F4A1C0F62C981325C0D9
:1047E0009091E902D8018C9198131FC02091F0029A
:1047F0003091F10217968D919C9128173907A9F4F1
:10480000611077C08B2D8F7080618093EF0289EEED
:1048100092E00E94181B8091EF02F8018683F12C30
:104820008F2D2F96EFE00C945F34611062C0E09101
:10483000A00280919F02AE2F99E0A81302C099E0D8
:104840002AC02A2F30E09A9FD0011124AF55BD4FC6
:1048500011964C911197741207C04C91C41204C068
:1048600015964C91411147C1D9011196A770E5CF1A
:104870002E2F30E09E9FF0011124EF55FD4F418116
:10488000741206C04081C41203C045814111C7CFD4
:10489000F9013196E7708E13EBCF8A859B850E94D4
:1048A000630E292F22952F70903448F02A5F2F70C5
:1048B0002230C8F0C8010E94181BFD2CB1CF9F7098
:1048C000223038F0992351F0F8019681903130F47C
:1048D000A7CF992319F0882309F4A2CF805E8830EE
:1048E00008F49ECFE7CF803F08F49ACF815F8230F3
:1048F000F7CF8091EF0281608093EF0280918E0468
:1049000081FD8DCF89EE92E00E94181B89E0E9EECF
:10491000F2E0DF011D928A95E9F781CF981321C05B
:104920009091E902D8018C9198131BC02091F0025C
:104930003091F10217968D919C911897281739079D
:1049400081F461100EC01696BC92C8010E94181B1B
:1049500089E0F801A9EEB2E001900D928A95E1F7A5
:1049600011CFC8010E94720E882309F4BAC06620D4
:1049700009F4B7C08091EF02803208F4F9CE80913B
:10498000E9029091EA029A838983FC82EB8280910A
:10499000ED028D831E82BF828091F0029091F10220
:1049A00099878887CE0101960E94181BE1CED0908E
:1049B000EF02BFE0BD1508F0A5CF552009F4E2CE07
:1049C0009091EA02F801818198131AC09091E9024E
:1049D0008081981315C02091F0023091F1028781F7
:1049E00090852817390761F461100AC0D682C80182
:1049F0000E94181B89E0D5011D928A95E9F7C2CE65
:104A0000C8010E94720E882309F46BC0662009F465
:104A100068C08091EF02803208F4AACE8091E9024A
:104A20009091EA029A838983FC82EB828091ED0265
:104A30008D831E82DF82B0CF6701C81AD90A60E079
:104A400089EE92E00E94A40E0E94961AC816D9061A
:104A500008F04BC0552009F495CE662009F441C0FA
:104A60009091EA02F8018181981331C09091E90296
:104A7000808198132CC02091F0023091F10287813F
:104A800090852817390719F58091EB029091EC0277
:104A9000E81AF90AF8ECEF16F10408F059CF809102
:104AA000EF0280FD55CF803108F452CFD801169621
:104AB0008C931697982F907F903F09F446CF982FAC
:104AC000907F905F8F70892B16968C933ECFC80194
:104AD0000E94720E81114CCE8091EF028160809312
:104AE000EF02C8010E94181B4DCE89E0F50111921A
:104AF0008A95E9F794CE90918E0490FFA0CE02CFD4
:104B0000A2E1B0E0E6E8F5E20C944E340A871B8798
:104B10002C873D874E875F87688B798B8A8BCE0188
:104B20000A960E94882381112BC089E0FE013A96E3
:104B3000DE01119601900D928A95E1F720919F0276
:104B40004091A0028E858823D9F030E0C9010196FA
:104B50008770992750E084179507E9F099E0929FB4
:104B6000D001939FB00D1124AF55BD4FFE0131967A
:104B700001900D929A95E1F780939F020E947F0425
:104B800019E08091A00290919F02891312C0629651
:104B9000E4E00C946A340E94840F10929F021092F9
:104BA000A00289E0E9EEF2E0DF011D928A95E9F7C3
:104BB000E7CF189FC00111248F559D4F0E94882375
:104BC000882329F38091A00290E0019687709927AD
:104BD0008093A002D6CFEF92FF920F931F93CF93B3
:104BE000DF9380916C04E091C201CDE0811131C06E
:104BF000CDB7DEB7E6E00C946834D1E0DE0FD09399
:104C0000C201EE2EF12CCE9FF0011124EC5FFB4F80
:104C100084818823E9F087819085892B21F481851F
:104C20009285019659F4008111812281338144815A
:104C300055816681778180850E948025CE9DF00117
:104C4000CF9DF00D1124EC5FFB4F14821092BC033A
:104C5000ED2F80916C04E81780F210926C04109292
:104C6000C201C6CFA4E0B0E0E8E3F6E20C94413420
:104C700020910304298317E0912E01E010E08DE0DC
:104C8000382E94E0492E5524539480910204998142
:104C9000891308C00E94EB250E94D5072496E1E104
:104CA0000C945D345981452F50E05C834B83FA01AD
:104CB000EE0FFF1FE850FC4F80819181989ED0013C
:104CC000999EB00D1124FD01E054FC4FFA83E98355
:104CD000248121115DC070906C04E4E0F4E060E098
:104CE00070E0812C671508F051C0A384B484A981B9
:104CF000BA81CD90DC904FEF5FEF612C262D30E034
:104D00007901EE0CFF1CEC0CFD1CD701ED90FC9022
:104D1000E114F10439F0AE14BF0409F09A01639470
:104D2000A901ECCF4F3F5407E1F1D80102C0AA0F0F
:104D3000BB1F4A95E2F78A2AA801062C02C0440F3D
:104D4000551F0A94E2F79A0121503109482D50E08D
:104D50002417350729F5369EF001379EF00D1124F2
:104D6000EC5FFB4F989ED001999EB00D1124A0548A
:104D7000BC4F12962D913C91139730872783448224
:104D8000108211829287818715965C920E94E607B5
:104D90008B819C8101969A8389838370898375CFE7
:104DA00014826F5F7F4F3D969DCF10926E041092DC
:104DB0006D041092310180910204809303040E94DB
:104DC000D5070E94EB250895ACE1B0E0EAEEF6E2EB
:104DD0000C9440344B8B5C8B6D8B7E8B8F8B988FC0
:104DE000882349F0809197049091980401969093BC
:104DF000980480939704588C51101092BC03188A21
:104E0000198A1A8A86E0FE017396DE011A960190CD
:104E10000D928A95E1F78091960482FF21C08091DE
:104E2000730490917404892BD9F00E944709209152
:104E3000BE033091BF03821B930B2091730430910A
:104E400074048217930738F08091BD0382FD03C07C
:104E500082E00E9489040E94530981110E94B304D8
:104E60008E85882379F061E0CE010A960E94A40E17
:104E70005C0180352CE7920789F4552011F181E01F
:104E8000809331010A851B852C853D854E855F8584
:104E9000688979898A890E948025C8C081353CE764
:104EA000930729F4552069F00E94D526EBCF82356F
:104EB0009C4739F4552029F0809131018111F4CFBC
:104EC000DECF80ECE82E83E0F82E412C812C912C53
:104ED00066246394712CD7014D915C91CC24CA94C3
:104EE000DD24DA9420E0822F90E0FC01EE0FFF1F1A
:104EF000E40FF51F608171816115710539F0A61607
:104F0000B70609F0C6012F5F6C01EDCFBFEFCB16DE
:104F1000DB0609F473C1F7015481358146815111D3
:104F200004C180913101882309F411C1552009F48D
:104F30000EC10091870410918804311114C081E0E2
:104F400090E00C2C01C0880F0A94EAF7482B4683A6
:104F500080910004909101048017910720F4109330
:104F6000010400930004A30102C0440F551F2A95B9
:104F7000E2F79A0121503109D70116968C9190E001
:104F80002817390781F480916D0490916E04009781
:104F900009F450C00E94FB0A0817190708F04AC01C
:104FA00081E0F7018483852D482ABFEF8B1A9B0A85
:104FB000E7E0EE0EF11CF8E08F16910409F08BCFBC
:104FC000552009F42FC1442009F41AC10E94470951
:104FD00090936E0480936D0480916C04883030F55A
:104FE00091E0980F90936C0499E0FE013A96DE01EF
:104FF000119601900D929A95E1F72DE0829FC001E4
:1050000011248C5F9B4F29E0FE013196DC01019059
:105010000D922A95E1F72FEF3FEFDC011A963C93B2
:105020002E9319971C96BC92AE921B976C96E2E158
:105030000C945C342091030480910204922FE0E0F0
:10504000F0E06701281314C090930304EE15FF05E8
:1050500009F4A9CF90E0FC01EE0FFF1FE850FC4FD0
:1050600091828082019683709927809302049BCF5E
:10507000022F10E0F801EE0FFF1FE850FC4F608197
:105080007181F7E0F69FD001F79FB00D1124A05475
:10509000BC4F4D915C9111975C8F4B8F50E030E08D
:1050A00040E0E42FF0E0EE0FFF1F6B8D7C8DE60FEC
:1050B000F71F2080318021143104E1F0F7010190C5
:1050C000F081E02DFA8FE98F30E005C02616370613
:1050D00009F4552D3F5FE32FF0E0EE0FFF1F698DC0
:1050E0007A8DE60FF71F608171816115710571F787
:1050F0004F5FD7CF5523B1F0F601341708F0FD010B
:1051000031E03483EE15FF0509F49ECF921305C0FC
:10511000EA17FB0711F49F5F937098012F5F3F4FD1
:10512000237090CFE0E0F0E0F8CF50E031112FC0D5
:10513000B30102C0660F771F2A95E2F7CB010197F2
:105140004817590799F4C4010E94E6070FC050E0C0
:1051500031111DC0D30102C0AA0FBB1F2A95E2F76F
:105160009D01215031092417350709F080E0F30132
:1051700002C0EE0FFF1FCA94E2F76F01C094D7017F
:1051800016969C9116979C2116969C930DCFCA015A
:105190000C2C02C0959587950A94E2F79A0121504C
:1051A000310924233523232B39F580FF25C0F7014E
:1051B00082819381892BD9F087E0FE013196DF014E
:1051C0001D928A95E9F70E9447099C018B839C8375
:1051D00084E08D83F70192818381792F9887898775
:1051E00009811A8144E05E816F810E948025D70188
:1051F00015961C9281E0BBCF8170B9CF80E0D4CEF0
:105200009091020480910304981309C00E94EB2539
:1052100010926E0410926D040E94D50733CE0E9446
:10522000322630CE9091030480910204981729F021
:105230000E9432264110FACE25CE0E94EB25109214
:105240006E0410926D040E94D507F4CFA6E0B0E082
:10525000ECE2F9E20C944E340E9447098C018091F3
:105260009302909194028017910779F019821A8223
:105270000E944709BC0149815A8180E090E00E9468
:10528000E42610939402009393022696E4E00C9493
:105290006A34A6E0B0E0EFE4F9E20C945034909365
:1052A000900280938F02811520E2920730F40E94D1
:1052B000B5182696E2E00C946C3480EF89838A83DB
:1052C0000E9447098160BC0149815A8181E091E0D7
:1052D0000E94E426EECFA6E0B0E0E1E7F9E20C940C
:1052E00050349093900280938F02811520E29207B0
:1052F00030F40E944B0F2696E2E00C946C3480EF61
:1053000089838A830E9447098160BC0149815A814F
:1053100081E090E00E94E426EECFCF93DF93D82F78
:10532000C92F0E94492980918F04909190040E9476
:10533000920C8D2F9C2F0E946B29DF91CF910895A5
:105340000F931F93CF93DF938C01862F6AE173E055
:105350000E94811A892BB1F4C0911A03D0911B03CA
:10536000209781F0F8018281833051F4CE010E94B0
:105370008D29CE010E948D29CE010E948D2902C067
:105380008430D0F7DF91CF911F910F9108950F9343
:105390001F93CF93DF938C01EB016AE173E08C2FB5
:1053A0000E94811A892B09F05AC0FE01FF27D801FB
:1053B00012968C911297ED5CFD4F8130A9F41596F1
:1053C0008C9182FD51C080FF4FC082E0808380912C
:1053D0001C0390911D030097B9F480911A039091DA
:1053E0001B030097E1F110C08230B9F515968C913E
:1053F00082FD28C080FD0BC083E0808380911E0366
:1054000090911F03009701F10E94492928C084E070
:10541000808380912003909121030097A9F78091C8
:105420001A0390911B03009711F10E948D2980911E
:105430001C0390911D03009739F780911A039091F6
:105440001B03E2CF85E0808380911A0390911B03B8
:10545000009729F00E948D29F0CF86E08083DF91AC
:10546000CF911F910F91089581E08083B6CF8091F5
:105470001C0390911D03B5CF0F931F93CF93DF9320
:105480008C01EB016AE173E08C2F0E94811A892B59
:10549000A1F480918F04909190040E94920CDD27DA
:1054A000CD5CDD4F8881F801128218828330F1F0E3
:1054B00048F4813059F0823081F0DF91CF911F9113
:1054C0000F9108958430B9F08530B9F780911A03AF
:1054D00090911B03009789F306C080911C03909163
:1054E0001D03009799F30E946B29E7CF80911E035B
:1054F00090911F03F6CF8091200390912103009794
:1055000091F720911A0330911B0380911C03909115
:105510001D0321153105F1F2009729F7C901E3CFE9
:10552000CDB7DEB7AE970FB6F894DEBF0FBECDBFD6
:1055300085B7806885BF85B7806885BF84B7877F5A
:1055400084BF0FB6F894A89580916000886180931D
:105550006000109260000FBE80E890E00FB6F894F3
:1055600080936100909361000FBE8AEC96E0909367
:105570009301809392010E94F2060E943D1A0E94BC
:10558000C60D0E94C80B0E94370C8091E200846017
:105590008093E200789480916B02882399F0809147
:1055A000E9001091EC001795112717958F70182BB3
:1055B0001092E9008091E80083FD0E94A1101F7005
:1055C0001093E90082E084BD93E095BD9AEF97BD0A
:1055D00080936E0010928B0210928C0210928D02BA
:1055E00010928E020E94B00E811102C00E94B51668
:1055F0008091D80080618093D8002AE12A95F1F744
:1056000000C08091D90080FD7AC00E94C80B109222
:105610006B021092890210928A021092010180910D
:1056200001018091010190E0811101C096E0909309
:10563000480286E0891B809347020EE411E0B4E53E
:10564000EB2EB1E0FB2ED8018D918D018F3F11F033
:105650000E94CC06E016F106B1F704E511E0AAE5D8
:10566000EA2EA1E0FA2EF80181918F018F3F11F00F
:105670000E94CC06E016F106B1F78CE0EFE5F2E00F
:10568000DF01282F1D922A95E9F7EBE3F2E0DF0115
:105690001D928A95E9F780E090E00E94EA34863E08
:1056A0009E4F21F40E94B00E811102C00E94C516C7
:1056B00082E090E00E94E23480934B0284E090E02C
:1056C0000E94EA3490939604809395040E94F81304
:1056D000EFEFF6E721E0E150F0402040E1F700C0B5
:1056E00000000E94F81380915F0280FF12C06FEFEC
:1056F0007FEF80E090E00E941E350E940A0B81E05F
:105700008093890280938A02809301010E94DD3296
:1057100086CF83E090E00E94E2340E94D103809122
:105720008902811102C00E94E03282E091E09093F0
:1057300096028093950278E1472E512CEBE6CE2E0F
:10574000E2E0DE2EF8E5AF2EF2E0BF2E7724739470
:1057500080916B02853049F480916B02853009F4A9
:1057600051C00E94840F0E94C1080E94F8130CE4EB
:1057700012E06FE5E62E62E0F62ED701F801919176
:105780008D91AE16BF0609F48BC09817C1F34091F6
:1057900089024BA7912CD7018D907D01F8012190B2
:1057A0008F01281441F12824612C33243394832D54
:1057B00082218823C1F0FBA5FF23A9F069829A8288
:1057C0000E9447099C838B837D8291E0832D8821F1
:1057D000811101C090E09E8349815A816B817C8157
:1057E0008D810E94E4266394330C26E06212DFCFA1
:1057F000F8013197808293943CE09312CCCF0E94C1
:10580000C80A52C080916B02843011F11092490293
:1058100030E40FB6F894A895409260000FBE309324
:10582000600083B7817F846083BF83B7816083BF5B
:105830007894889583B78E7F83BF0FB6F894A89528
:1058400080916000886180936000109260000FBEBC
:1058500080914A02882309F47FCF0E94F813EFE574
:10586000F2E08191811104C0CE16DF06D1F774CF2A
:1058700080E189BD82E189BD09B400FEFDCF809140
:10588000D8008F7D8093D8008091E0008260809363
:10589000E0008091E00081FDFCCF0E94840F5CCF8E
:1058A000981375CF0E94262980918902882309F4D4
:1058B0006CC0E0902403F0902503E114F10409F199
:1058C00080912603909127030E94FB0A8C01C70157
:1058D0000E94961A80179107A0F48091240390915A
:1058E0002503992754E0880F991F5A95E1F7FC0189
:1058F000E35DFC4F208122FD04C0885D9C4F0E9427
:10590000A11380913101882301F180916D04909160
:105910006E040097D1F00E94FB0A209100043091A0
:1059200001042817390788F4909103048091020438
:10593000981709F4B8C00E94322610920104109200
:10594000000410926E0410926D0480918C0480FF0C
:105950001CC08091300182FF18C00E944709BC0121
:105960008091A8039091A9039B01281B390B80917A
:105970000C0190910D012817390738F041E0809112
:10598000AA039091AB030E94DB1886E0E4E1F3E008
:10599000DE01119601900D928A95E1F7F0901503C2
:1059A000009116031091170390901803E0901903CB
:1059B00010921603109217031092180310921903F5
:1059C000812F802B882399F080915A0290915B025D
:1059D0000E94FB0A9C0180911203882309F46CC089
:1059E00040912E0150E04217530708F473C08E2DEA
:1059F0008929882399F080915802909159020E9438
:105A0000FB0A9C0180911103882309F49BC04091FB
:105A10000F0150E04217530708F4A2C0809115030C
:105A2000F81216C080911603882311F0801310C05D
:105A300090911703992311F091130AC02091190333
:105A4000211106C020911803211102C0892B811158
:105A50000E94AF0986E0FE013196A4E1B3E0019017
:105A60000D928A95E1F70E94C10890915C02891716
:105A700021F080935C020E94AB0A80916B0284301B
:105A800009F066CE83E08093E9008091E80082FF10
:105A90005FCE8091E80085FD9BC08091E8008B7708
:105AA0008093E80055CE0E94EB2510926E04109270
:105AB0006D040E94D50749CF40912F019AE0499F7C
:105AC000A00111244217530708F091CF8F5F8093F4
:105AD000120302C08F3FD1F7002359F00E94200823
